:100000000C947A000C9499000C9499000C9499002B
:100010000C9499000C9499000C9499000C949900FC
:100020000C9499000C9499000C9499000C949900EC
:100030000C9499000C9499000C9499000C949900DC
:100040000C9499000C9499000C9499000C949900CC
:100050000C9499000C9499000C9499000C949900BC
:100060000C9499000C9499000C9499000C949900AC
:100070000C9499000C9499000C9499000C9499009C
:100080000C9499000C9499000C9499000C9499008C
:100090000C9499000C9499000C9499000C9499007C
:1000A0000C9499000C9499000C9499000C9499006C
:1000B0000C9499000C9499000C9499000C9499005C
:1000C0000C9499000C9499000C9499000C9499004C
:1000D0000C9499000C9499000C9499000C9499003C
:1000E0000C9499000C9499000C9499000C9499002C
:1000F0000C94990011241FBECFEFCDBFDFE7DEBF08
:1001000010E4A0E0B0E4ECEBFDE000E00BBF02C0C7
:1001100007900D92AC31B107D9F720E4ACE1B0E41F
:1001200001C01D92AB36B207E1F70E943F020C946A
:10013000DC060C940000CF93DF931F92CDB7DEB79F
:1001400010924404E0E0F4E094819F7794838093DC
:100150004409809143098823E4F7E0E0F4E08481D6
:1001600080688483E0E4F9E080E883838481898384
:100170000F90DF91CF910895CF93DF931F92CDB76A
:10018000DEB791E090934404E0E0F4E094819F773F
:10019000948380934409809143098823E4F7E0E045
:1001A000F4E0848180688483E0E4F9E080E883837C
:1001B000848189830F90DF91CF910895E0E0F4E08E
:1001C00080ED808380E88483E0E4F9E080E380834D
:1001D00087E08183808181608083E0E4F4E081E0D6
:1001E00080831482089528E230E00BC0000001965D
:1001F00002C080E090E0803243E09407BCF32150DD
:10020000310912161306ACF3089521E030E00AC05C
:100210000000019602C080E090E082309105C4F3B6
:100220002150310912161306B4F308950E94DE001E
:100230000E94F30089E30E949B000E94050189E36C
:100240000E949B000E9405018EE10E949B000E947B
:10025000050185E50E949B000E9405018CE60E9435
:100260009B000E94F3008FE70E949B000E94050103
:100270008CE00E949B000E94050181E00E949B008F
:100280000E94050186E00E949B000E9405010895DE
:10029000CF93DF930E94DE0080E80E949B000E94C3
:1002A0000501C0E0D0E009C0FE01E45EFF4B8081A3
:1002B0000E94BC000E9405012196C031D105A4F323
:1002C00080E90E949B000E940501C0E0D0E009C0C7
:1002D000FE01E25DFF4B80810E94BC000E9405018F
:1002E0002196C031D105A4F380EA0E949B000E94B0
:1002F0000501C0E0D0E009C0FE01E15CFF4B808158
:100300000E94BC000E9405012196C031D105A4F3D2
:10031000DF91CF9108950E9485020E94A4028091EE
:100320006540909166409C0120593140243631054A
:1003300030F44FE76AE180E40E948E0208959C0148
:10034000245F31402436310530F44FE36AE180E424
:100350000E948E0208959C012855324024363105B2
:1003600030F44FE16AE180E40E948E0208959C011E
:100370002C5B32402436310530F44FE06AE180E4F2
:100380000E948E0208959C0120523340243631058C
:1003900030F447E06AE180E40E948E0208959C01F7
:1003A000245833402436310530F443E06AE180E4D8
:1003B0000E948E0208959C01285E33402436310548
:1003C00030F443E06AE180E40E948E0208958C5488
:1003D00094408436910530F441E06AE180E40E9463
:1003E0008E02089540E06AE180E40E948E02089542
:1003F000CF93DF932FEF84E39CE021508040904027
:10040000E1F700C00000C0E0D0E007C0FE01E45EFC
:10041000FF4B80810E94F8032196C131D105B4F3CE
:100420008DE00E94F8038AE00E94F803C0E0D0E06B
:1004300007C0FE01E25DFF4B80810E94F803219618
:10044000C131D105B4F38DE00E94F8038AE00E9427
:10045000F803C0E0D0E007C0FE01E15CFF4B808103
:100460000E94F8032196C131D105B4F38DE00E94BA
:10047000F8038AE00E94F803DF91CF9108950E946B
:1004800016014EE468E080E895E20E94DA030E94DB
:10049000B4020E941D030E943003C5E6D0E48981A6
:1004A0008F9388818F9380E090E49F938F938CE16A
:1004B00090E49F938F930E94FF038B818F938A8197
:1004C0008F9389E090E49F938F938EE290E49F93C3
:1004D0008F930E94FF038D818F938C818F9383E193
:1004E00090E49F938F938FE390E49F938F930E9468
:1004F000FF030E9448010E948B010E94F8018DB702
:100500009EB742968DBF9EBFC2CF10920004E0E01E
:10051000F9E0168281E0838385830895809307093B
:100520008091050986FFFCCF609308098091050939
:1005300086FFFCCF409308098091050986FFFCCF18
:1005400083E080930409089540E86AE080E40E9413
:100550008E0240E060E080E40E948E0240E060E1B4
:1005600080E40E948E02089510920004E0E0F9E019
:100570008FE0868381E083838583089524EC209334
:1005800007092091050926FFFCCF90930809909157
:10059000050996FFFCCF809308098091050986FF25
:1005A000FCCFE0E0F9E08481836084830895EFE488
:1005B000F3EC3197F1F700C0000024EC2093070919
:1005C0002091050926FFFCCF909308099091050919
:1005D00096FFFCCF809308098091050986FFFCCF28
:1005E00087EE93E00197F1F700C0000085EC80935F
:1005F0000709615012C0809105098823E4F7E62FAE
:10060000F0E0E45AFF4BA0E0B9E018968C911897FF
:10061000808382E014968C936F5F6111ECCF8091A0
:1006200005098823E4F7E0E0F9E0808580935C40E9
:1006300087E084838CE590E4089581EB91E20E9449
:10064000BE0263E088EB94EE0E94D702809159408D
:10065000863029F469E085E09CEE0E94D702089577
:100660000F931F93CF93DF93E0E5F0E480819181B6
:10067000C5E6D0E49883898384819381A0E0B0E0CB
:10068000689413F8B695A795979587951694D1F722
:10069000AC01BD01440F551F661F771F440F551F46
:1006A000661F771F840F951FA61FB71F689413F846
:1006B000B695A795979587951694D1F7AC01BD018E
:1006C000440F551F661F771F440F551F661F771F66
:1006D000840F951FA61FB71F689413F8B695A795AA
:1006E000979587951694D1F7AC01BD01440F551F1E
:1006F000661F771F440F551F661F771F440F551F36
:10070000661F771F8A019B01081B190B2A0B3B0BE5
:10071000D901C801689413F8B695A7959795879560
:100720001694D1F78D97A109B1098A839B8380859F
:100730009781A0E0B0E0689413F8B695A7959795D7
:1007400087951694D1F7880F991FAA1FBB1FAC017C
:10075000BD01440F551F661F771F440F551F661FAD
:10076000771F840F951FA61FB71F689413F8B695BF
:10077000A795979587951694D1F7880F991FAA1F6B
:10078000BB1FAC01BD01440F551F661F771F440FEF
:10079000551F661F771F840F951FA61FB71F892F30
:1007A0009A2FAB2FBB278C839D83DF91CF911F9115
:1007B0000F91089583E896E0809368089093690804
:1007C000453429F465506062609367080AC04F346D
:1007D00029F4655060636093670803C065506093B7
:1007E000670881E08093200480E480936608089580
:1007F0009091640895FFFCCF8093620808950F9351
:100800001F93CF93DF93CDB7DEB72E97CDBFDEBF5B
:100810000D891E8986E08C8309831A838FEF9FE7F9
:100820008D839E83AE01475E5F4F6F89788DCE01C9
:1008300001960E942804EF81F885E00FF11F1082D5
:100840002E96CDBFDEBFDF91CF911F910F910895FE
:100850002F923F924F925F926F927F928F929F92D0
:10086000AF92BF92CF92DF92EF92FF920F931F93BE
:10087000CF93DF93CDB7DEB72B97CDBFDEBF6C0133
:100880007B018A01FC0116821782838181FFCCC122
:10089000CE0101963C01F6019381F70193FD85910C
:1008A00093FF81917F01882309F4BAC1853239F41D
:1008B00093FD859193FF81917F01853229F4B601E3
:1008C00090E00E944206E7CF912C212C312CFFE1D1
:1008D000F315D8F08B3279F038F4803279F0833226
:1008E000A1F4232D20611DC08D3261F0803369F4A5
:1008F000232D216016C0832D8260382EE32DE46005
:100900003E2E2AC0F32DF8601DC037FC2DC020ED0F
:10091000280F2A3040F08E32B9F436FC81C1232DE5
:100920002064322E19C036FE06C08AE0989E200D43
:100930001124922E11C0EAE02E9E200D1124222EA9
:10094000F32DF0623F2E08C08C3621F4832D806891
:10095000382E02C0883641F4F70193FD859193FF4C
:1009600081917F018111B3CF982F9F7D9554933052
:1009700028F40C5F1F4F9FE399830DC0833631F03D
:10098000833771F0833509F059C021C0F8018081A7
:1009900089830E5F1F4F88248394912C530113C0C9
:1009A0002801F2E04F0E511CF801A080B18036FE04
:1009B00003C0692D70E002C06FEF7FEFC5010E9498
:1009C00037064C018201F32DFF773F2E16C0280118
:1009D00022E0420E511CF801A080B18036FE03C017
:1009E000692D70E002C06FEF7FEFC5010E942C06F9
:1009F0004C01F32DF0683F2E820133FC1BC0822D89
:100A000090E088169906B0F4B60180E290E00E946A
:100A100042062A94F4CFF50137FC859137FE819187
:100A20005F01B60190E00E94420621102A9421E065
:100A3000821A91088114910471F7E8C0843611F08C
:100A4000893641F5F80137FE07C0608171818281E6
:100A500093810C5F1F4F08C060817181072E000CCD
:100A6000880B990B0E5F1F4FF32DFF763F2E97FFDC
:100A700009C090958095709561957F4F8F4F9F4FDE
:100A8000F0683F2E2AE030E0A3010E947E06882E07
:100A9000861845C0853731F4232D2F7EB22E2AE0EB
:100AA00030E025C0932D997FB92E8F36C1F018F410
:100AB000883579F0B5C0803719F0883721F0B0C09B
:100AC000E92FE061BE2EB4FE0DC0FB2DF460BF2EF9
:100AD00009C034FE0AC0292F2660B22E06C028E0C5
:100AE00030E005C020E130E002C020E132E0F80152
:100AF000B7FE07C060817181828193810C5F1F4FB7
:100B000006C06081718180E090E00E5F1F4FA301FD
:100B10000E947E06882E8618FB2DFF773F2E36FE1C
:100B20000DC0232D2E7FA22E891458F434FE0BC045
:100B300032FC09C0832D8E7EA82E05C0B82CA32CB4
:100B400003C0B82C01C0B92CA4FE0FC0FE01E80DF3
:100B5000F11D8081803321F49A2D997EA92E09C040
:100B6000A2FE06C0B394B39404C08A2D867809F01F
:100B7000B394A3FC11C0A0FE06C0B21488F4280CE4
:100B8000922C9B180EC0B21460F4B60180E290E083
:100B90000E944206B394F7CFB21418F42B1802C087
:100BA000982C212CA4FE10C0B60180E390E00E9496
:100BB0004206A2FE17C0A1FC03C088E790E002C075
:100BC00088E590E0B6010CC08A2D867859F0A1FE28
:100BD00002C08BE201C080E2A7FC8DE2B60190E08A
:100BE0000E944206891438F4B60180E390E00E9426
:100BF00042069A94F7CF8A94F301E80DF11D8081A3
:100C0000B60190E00E9442068110F5CF222009F43F
:100C100042CEB60180E290E00E9442062A94F6CFCE
:100C2000F6018681978102C08FEF9FEF2B96CDBF93
:100C3000DEBFDF91CF911F910F91FF90EF90DF907A
:100C4000CF90BF90AF909F908F907F906F905F906C
:100C50004F903F902F900895FC0105906150704097
:100C60000110D8F7809590958E0F9F1F0895FC0175
:100C70006150704001900110D8F7809590958E0FCB
:100C80009F1F08950F931F93CF93DF93FB01238141
:100C900021FD03C08FEF9FEF2CC022FF16C04681BD
:100CA0005781248135814217530744F4A081B181D3
:100CB0009D012F5F3F4F208331838C9326813781A5
:100CC0002F5F3F4F2683378314C08B01EC01FB015C
:100CD0000084F185E02D0995892BE1F6D80116965F
:100CE0008D919C911797019616968D939C931797CB
:100CF000CE01DF91CF911F910F910895FA01AA279C
:100D0000283051F1203181F1E8946F936E7F6E5F4E
:100D10007F4F8F4F9F4FAF4FB1E03ED0B4E03CD0FC
:100D2000670F781F891F9A1FA11D680F791F8A1FDF
:100D3000911DA11D6A0F711D811D911DA11D20D046
:100D400009F468943F912AE0269F11243019305D00
:100D50003193DEF6CF010895462F4770405D4193F1
:100D6000B3E00FD0C9F7F6CF462F4F70405D4A333E
:100D700018F0495D31FD4052419302D0A9F7EACF06
:100D8000B4E0A6959795879577956795BA95C9F735
:100D900000976105710508959B01AC010A2E069428
:100DA0005795479537952795BA95C9F7620F731FE1
:0C0DB000841F951FA01D0895F894FFCF2C
:100DBC00434F323A202564200054656D703A20254B
:0C0DCC0064200048756D3A20256420006A
:00000001FF
